{"abi":[{"inputs":[{"internalType":"string","name":"_name","type":"string"},{"internalType":"string","name":"_symbol","type":"string"},{"internalType":"uint256","name":"_supply","type":"uint256"}],"stateMutability":"nonpayable","type":"constructor","name":"constructor"},{"inputs":[{"internalType":"address","name":"","type":"address"}],"name":"balanceOf","outputs":[{"internalType":"uint256","name":"","type":"uint256"}],"stateMutability":"view","type":"function"},{"inputs":[],"name":"decimals","outputs":[{"internalType":"uint256","name":"","type":"uint256"}],"stateMutability":"view","type":"function"},{"inputs":[],"name":"name","outputs":[{"internalType":"string","name":"","type":"string"}],"stateMutability":"view","type":"function"},{"inputs":[],"name":"supply","outputs":[{"internalType":"uint256","name":"","type":"uint256"}],"stateMutability":"view","type":"function"},{"inputs":[],"name":"symbol","outputs":[{"internalType":"string","name":"","type":"string"}],"stateMutability":"view","type":"function"}],"bytecode":"6080604052601260025534801561001557600080fd5b506040516104cf3803806104cf833981016040819052610034916101a0565b8251610047906000906020860190610067565b50815161005b906001906020850190610067565b506003555061025a9050565b82805461007390610209565b90600052602060002090601f01602090048101928261009557600085556100db565b82601f106100ae57805160ff19168380011785556100db565b828001600101855582156100db579182015b828111156100db5782518255916020019190600101906100c0565b506100e79291506100eb565b5090565b5b808211156100e757600081556001016100ec565b600082601f830112610110578081fd5b81516001600160401b038082111561012a5761012a610244565b6040516020601f8401601f191682018101838111838210171561014f5761014f610244565b6040528382528584018101871015610165578485fd5b8492505b838310156101865785830181015182840182015291820191610169565b8383111561019657848185840101525b5095945050505050565b6000806000606084860312156101b4578283fd5b83516001600160401b03808211156101ca578485fd5b6101d687838801610100565b945060208601519150808211156101eb578384fd5b506101f886828701610100565b925050604084015190509250925092565b60028104600182168061021d57607f821691505b6020821081141561023e57634e487b7160e01b600052602260045260246000fd5b50919050565b634e487b7160e01b600052604160045260246000fd5b610266806102696000396000f3fe608060405234801561001057600080fd5b50600436106100575760003560e01c8063047fc9aa1461005c57806306fdde031461007a578063313ce5671461008f57806370a082311461009757806395d89b41146100aa575b600080fd5b6100646100b2565b60405161007191906101ec565b60405180910390f35b6100826100b8565b6040516100719190610199565b610064610146565b6100646100a536600461016b565b61014c565b61008261015e565b60035481565b600080546100c5906101f5565b80601f01602080910402602001604051908101604052809291908181526020018280546100f1906101f5565b801561013e5780601f106101135761010080835404028352916020019161013e565b820191906000526020600020905b81548152906001019060200180831161012157829003601f168201915b505050505081565b60025481565b60046020526000908152604090205481565b600180546100c5906101f5565b60006020828403121561017c578081fd5b81356001600160a01b0381168114610192578182fd5b9392505050565b6000602080835283518082850152825b818110156101c5578581018301518582016040015282016101a9565b818111156101d65783604083870101525b50601f01601f1916929092016040019392505050565b90815260200190565b60028104600182168061020957607f821691505b6020821081141561022a57634e487b7160e01b600052602260045260246000fd5b5091905056fea2646970667358221220644eada5c3c92b4decf7efd853b1412cbf3e6d8c071b024a18ca5137065c8c8364736f6c63430008000033","bytecodeSha1":"99904dd76fcd5464f22da929699c0147f2512d10","compiler":{"evm_version":"istanbul","optimizer":{"enabled":true,"runs":200},"version":"0.8.0+commit.c7dfd78e"},"contractName":"Token","language":"Solidity","natspec":{"kind":"dev","methods":{},"version":1},"opcodes":"PUSH1 0x80 PUSH1 0x40 MSTORE CALLVALUE DUP1 ISZERO PUSH2 0x10 JUMPI PUSH1 0x0 DUP1 REVERT JUMPDEST POP PUSH1 0x4 CALLDATASIZE LT PUSH2 0x57 JUMPI PUSH1 0x0 CALLDATALOAD PUSH1 0xE0 SHR DUP1 PUSH4 0x47FC9AA EQ PUSH2 0x5C JUMPI DUP1 PUSH4 0x6FDDE03 EQ PUSH2 0x7A JUMPI DUP1 PUSH4 0x313CE567 EQ PUSH2 0x8F JUMPI DUP1 PUSH4 0x70A08231 EQ PUSH2 0x97 JUMPI DUP1 PUSH4 0x95D89B41 EQ PUSH2 0xAA JUMPI JUMPDEST PUSH1 0x0 DUP1 REVERT JUMPDEST PUSH2 0x64 PUSH2 0xB2 JUMP JUMPDEST PUSH1 0x40 MLOAD PUSH2 0x71 SWAP2 SWAP1 PUSH2 0x1EC JUMP JUMPDEST PUSH1 0x40 MLOAD DUP1 SWAP2 SUB SWAP1 RETURN JUMPDEST PUSH2 0x82 PUSH2 0xB8 JUMP JUMPDEST PUSH1 0x40 MLOAD PUSH2 0x71 SWAP2 SWAP1 PUSH2 0x199 JUMP JUMPDEST PUSH2 0x64 PUSH2 0x146 JUMP JUMPDEST PUSH2 0x64 PUSH2 0xA5 CALLDATASIZE PUSH1 0x4 PUSH2 0x16B JUMP JUMPDEST PUSH2 0x14C JUMP JUMPDEST PUSH2 0x82 PUSH2 0x15E JUMP JUMPDEST PUSH1 0x3 SLOAD DUP2 JUMP JUMPDEST PUSH1 0x0 DUP1 SLOAD PUSH2 0xC5 SWAP1 PUSH2 0x1F5 JUMP JUMPDEST DUP1 PUSH1 0x1F ADD PUSH1 0x20 DUP1 SWAP2 DIV MUL PUSH1 0x20 ADD PUSH1 0x40 MLOAD SWAP1 DUP2 ADD PUSH1 0x40 MSTORE DUP1 SWAP3 SWAP2 SWAP1 DUP2 DUP2 MSTORE PUSH1 0x20 ADD DUP3 DUP1 SLOAD PUSH2 0xF1 SWAP1 PUSH2 0x1F5 JUMP JUMPDEST DUP1 ISZERO PUSH2 0x13E JUMPI DUP1 PUSH1 0x1F LT PUSH2 0x113 JUMPI PUSH2 0x100 DUP1 DUP4 SLOAD DIV MUL DUP4 MSTORE SWAP2 PUSH1 0x20 ADD SWAP2 PUSH2 0x13E JUMP JUMPDEST DUP3 ADD SWAP2 SWAP1 PUSH1 0x0 MSTORE PUSH1 0x20 PUSH1 0x0 KECCAK256 SWAP1 JUMPDEST DUP2 SLOAD DUP2 MSTORE SWAP1 PUSH1 0x1 ADD SWAP1 PUSH1 0x20 ADD DUP1 DUP4 GT PUSH2 0x121 JUMPI DUP3 SWAP1 SUB PUSH1 0x1F AND DUP3 ADD SWAP2 JUMPDEST POP POP POP POP POP DUP2 JUMP JUMPDEST PUSH1 0x2 SLOAD DUP2 JUMP JUMPDEST PUSH1 0x4 PUSH1 0x20 MSTORE PUSH1 0x0 SWAP1 DUP2 MSTORE PUSH1 0x40 SWAP1 KECCAK256 SLOAD DUP2 JUMP JUMPDEST PUSH1 0x1 DUP1 SLOAD PUSH2 0xC5 SWAP1 PUSH2 0x1F5 JUMP JUMPDEST PUSH1 0x0 PUSH1 0x20 DUP3 DUP5 SUB SLT ISZERO PUSH2 0x17C JUMPI DUP1 DUP2 REVERT JUMPDEST DUP2 CALLDATALOAD PUSH1 0x1 PUSH1 0x1 PUSH1 0xA0 SHL SUB DUP2 AND DUP2 EQ PUSH2 0x192 JUMPI DUP2 DUP3 REVERT JUMPDEST SWAP4 SWAP3 POP POP POP JUMP JUMPDEST PUSH1 0x0 PUSH1 0x20 DUP1 DUP4 MSTORE DUP4 MLOAD DUP1 DUP3 DUP6 ADD MSTORE DUP3 JUMPDEST DUP2 DUP2 LT ISZERO PUSH2 0x1C5 JUMPI DUP6 DUP2 ADD DUP4 ADD MLOAD DUP6 DUP3 ADD PUSH1 0x40 ADD MSTORE DUP3 ADD PUSH2 0x1A9 JUMP JUMPDEST DUP2 DUP2 GT ISZERO PUSH2 0x1D6 JUMPI DUP4 PUSH1 0x40 DUP4 DUP8 ADD ADD MSTORE JUMPDEST POP PUSH1 0x1F ADD PUSH1 0x1F NOT AND SWAP3 SWAP1 SWAP3 ADD PUSH1 0x40 ADD SWAP4 SWAP3 POP POP POP JUMP JUMPDEST SWAP1 DUP2 MSTORE PUSH1 0x20 ADD SWAP1 JUMP JUMPDEST PUSH1 0x2 DUP2 DIV PUSH1 0x1 DUP3 AND DUP1 PUSH2 0x209 JUMPI PUSH1 0x7F DUP3 AND SWAP2 POP JUMPDEST PUSH1 0x20 DUP3 LT DUP2 EQ ISZERO PUSH2 0x22A JUMPI PUSH4 0x4E487B71 PUSH1 0xE0 SHL PUSH1 0x0 MSTORE PUSH1 0x22 PUSH1 0x4 MSTORE PUSH1 0x24 PUSH1 0x0 REVERT JUMPDEST POP SWAP2 SWAP1 POP JUMP INVALID LOG2 PUSH5 0x6970667358 0x22 SLT KECCAK256 PUSH5 0x4EADA5C3C9 0x2B 0x4D 0xEC 0xF7 0xEF 0xD8 MSTORE8 0xB1 COINBASE 0x2C 0xBF RETURNDATACOPY PUSH14 0x8C071B024A18CA5137065C8C8364 PUSH20 0x6F6C634300080000330000000000000000000000 ","sha1":"9106cdef7667dedab8bad6ac8d8b83c2fdaa39e7","source":"// SPDX-License-Identifier: Unlicense\npragma solidity ^0.8.0;\n\ncontract Token{\n    string public name;\n    string public symbol;\n    uint256 public decimals = 18;\n    uint256 public supply;\n    \n    mapping(address => uint256) public balanceOf;\n\n    constructor(\n        string memory _name,\n        string memory _symbol,\n        uint256 _supply\n    ){\n        name = _name;\n        symbol = _symbol;\n        supply = _supply;\n    }\n}","sourcePath":"contracts/Token.sol","type":"contract","deployment":{"address":"0x3468743b5A80639C127F85Ff1979F7C4186Fe400","chainid":"1331","blockHeight":12}}