{"abi":[{"inputs":[{"internalType":"string","name":"_name","type":"string"},{"internalType":"string","name":"_symbol","type":"string"},{"internalType":"uint256","name":"_supply","type":"uint256"}],"stateMutability":"nonpayable","type":"constructor","name":"constructor"},{"inputs":[],"name":"decimals","outputs":[{"internalType":"uint256","name":"","type":"uint256"}],"stateMutability":"view","type":"function"},{"inputs":[],"name":"name","outputs":[{"internalType":"string","name":"","type":"string"}],"stateMutability":"view","type":"function"},{"inputs":[],"name":"supply","outputs":[{"internalType":"uint256","name":"","type":"uint256"}],"stateMutability":"view","type":"function"},{"inputs":[],"name":"symbol","outputs":[{"internalType":"string","name":"","type":"string"}],"stateMutability":"view","type":"function"}],"bytecode":"6080604052601260025534801561001557600080fd5b50604051610471380380610471833981016040819052610034916101a0565b8251610047906000906020860190610067565b50815161005b906001906020850190610067565b506003555061025a9050565b82805461007390610209565b90600052602060002090601f01602090048101928261009557600085556100db565b82601f106100ae57805160ff19168380011785556100db565b828001600101855582156100db579182015b828111156100db5782518255916020019190600101906100c0565b506100e79291506100eb565b5090565b5b808211156100e757600081556001016100ec565b600082601f830112610110578081fd5b81516001600160401b038082111561012a5761012a610244565b6040516020601f8401601f191682018101838111838210171561014f5761014f610244565b6040528382528584018101871015610165578485fd5b8492505b838310156101865785830181015182840182015291820191610169565b8383111561019657848185840101525b5095945050505050565b6000806000606084860312156101b4578283fd5b83516001600160401b03808211156101ca578485fd5b6101d687838801610100565b945060208601519150808211156101eb578384fd5b506101f886828701610100565b925050604084015190509250925092565b60028104600182168061021d57607f821691505b6020821081141561023e57634e487b7160e01b600052602260045260246000fd5b50919050565b634e487b7160e01b600052604160045260246000fd5b610208806102696000396000f3fe608060405234801561001057600080fd5b506004361061004c5760003560e01c8063047fc9aa1461005157806306fdde031461006f578063313ce5671461008457806395d89b411461008c575b600080fd5b610059610094565b604051610066919061018e565b60405180910390f35b61007761009a565b604051610066919061013b565b610059610128565b61007761012e565b60035481565b600080546100a790610197565b80601f01602080910402602001604051908101604052809291908181526020018280546100d390610197565b80156101205780601f106100f557610100808354040283529160200191610120565b820191906000526020600020905b81548152906001019060200180831161010357829003601f168201915b505050505081565b60025481565b600180546100a790610197565b6000602080835283518082850152825b818110156101675785810183015185820160400152820161014b565b818111156101785783604083870101525b50601f01601f1916929092016040019392505050565b90815260200190565b6002810460018216806101ab57607f821691505b602082108114156101cc57634e487b7160e01b600052602260045260246000fd5b5091905056fea26469706673582212205de4084bbea2a937bb448cc71c71c6a87a132f63219cd9645adf2187cf579ee764736f6c63430008000033","bytecodeSha1":"e407be95a4b89996adc806aa720c065f41cb5cc6","compiler":{"evm_version":"istanbul","optimizer":{"enabled":true,"runs":200},"version":"0.8.0+commit.c7dfd78e"},"contractName":"Token","language":"Solidity","natspec":{"kind":"dev","methods":{},"version":1},"opcodes":"PUSH1 0x80 PUSH1 0x40 MSTORE CALLVALUE DUP1 ISZERO PUSH2 0x10 JUMPI PUSH1 0x0 DUP1 REVERT JUMPDEST POP PUSH1 0x4 CALLDATASIZE LT PUSH2 0x4C JUMPI PUSH1 0x0 CALLDATALOAD PUSH1 0xE0 SHR DUP1 PUSH4 0x47FC9AA EQ PUSH2 0x51 JUMPI DUP1 PUSH4 0x6FDDE03 EQ PUSH2 0x6F JUMPI DUP1 PUSH4 0x313CE567 EQ PUSH2 0x84 JUMPI DUP1 PUSH4 0x95D89B41 EQ PUSH2 0x8C JUMPI JUMPDEST PUSH1 0x0 DUP1 REVERT JUMPDEST PUSH2 0x59 PUSH2 0x94 JUMP JUMPDEST PUSH1 0x40 MLOAD PUSH2 0x66 SWAP2 SWAP1 PUSH2 0x18E JUMP JUMPDEST PUSH1 0x40 MLOAD DUP1 SWAP2 SUB SWAP1 RETURN JUMPDEST PUSH2 0x77 PUSH2 0x9A JUMP JUMPDEST PUSH1 0x40 MLOAD PUSH2 0x66 SWAP2 SWAP1 PUSH2 0x13B JUMP JUMPDEST PUSH2 0x59 PUSH2 0x128 JUMP JUMPDEST PUSH2 0x77 PUSH2 0x12E JUMP JUMPDEST PUSH1 0x3 SLOAD DUP2 JUMP JUMPDEST PUSH1 0x0 DUP1 SLOAD PUSH2 0xA7 SWAP1 PUSH2 0x197 JUMP JUMPDEST DUP1 PUSH1 0x1F ADD PUSH1 0x20 DUP1 SWAP2 DIV MUL PUSH1 0x20 ADD PUSH1 0x40 MLOAD SWAP1 DUP2 ADD PUSH1 0x40 MSTORE DUP1 SWAP3 SWAP2 SWAP1 DUP2 DUP2 MSTORE PUSH1 0x20 ADD DUP3 DUP1 SLOAD PUSH2 0xD3 SWAP1 PUSH2 0x197 JUMP JUMPDEST DUP1 ISZERO PUSH2 0x120 JUMPI DUP1 PUSH1 0x1F LT PUSH2 0xF5 JUMPI PUSH2 0x100 DUP1 DUP4 SLOAD DIV MUL DUP4 MSTORE SWAP2 PUSH1 0x20 ADD SWAP2 PUSH2 0x120 JUMP JUMPDEST DUP3 ADD SWAP2 SWAP1 PUSH1 0x0 MSTORE PUSH1 0x20 PUSH1 0x0 KECCAK256 SWAP1 JUMPDEST DUP2 SLOAD DUP2 MSTORE SWAP1 PUSH1 0x1 ADD SWAP1 PUSH1 0x20 ADD DUP1 DUP4 GT PUSH2 0x103 JUMPI DUP3 SWAP1 SUB PUSH1 0x1F AND DUP3 ADD SWAP2 JUMPDEST POP POP POP POP POP DUP2 JUMP JUMPDEST PUSH1 0x2 SLOAD DUP2 JUMP JUMPDEST PUSH1 0x1 DUP1 SLOAD PUSH2 0xA7 SWAP1 PUSH2 0x197 JUMP JUMPDEST PUSH1 0x0 PUSH1 0x20 DUP1 DUP4 MSTORE DUP4 MLOAD DUP1 DUP3 DUP6 ADD MSTORE DUP3 JUMPDEST DUP2 DUP2 LT ISZERO PUSH2 0x167 JUMPI DUP6 DUP2 ADD DUP4 ADD MLOAD DUP6 DUP3 ADD PUSH1 0x40 ADD MSTORE DUP3 ADD PUSH2 0x14B JUMP JUMPDEST DUP2 DUP2 GT ISZERO PUSH2 0x178 JUMPI DUP4 PUSH1 0x40 DUP4 DUP8 ADD ADD MSTORE JUMPDEST POP PUSH1 0x1F ADD PUSH1 0x1F NOT AND SWAP3 SWAP1 SWAP3 ADD PUSH1 0x40 ADD SWAP4 SWAP3 POP POP POP JUMP JUMPDEST SWAP1 DUP2 MSTORE PUSH1 0x20 ADD SWAP1 JUMP JUMPDEST PUSH1 0x2 DUP2 DIV PUSH1 0x1 DUP3 AND DUP1 PUSH2 0x1AB JUMPI PUSH1 0x7F DUP3 AND SWAP2 POP JUMPDEST PUSH1 0x20 DUP3 LT DUP2 EQ ISZERO PUSH2 0x1CC JUMPI PUSH4 0x4E487B71 PUSH1 0xE0 SHL PUSH1 0x0 MSTORE PUSH1 0x22 PUSH1 0x4 MSTORE PUSH1 0x24 PUSH1 0x0 REVERT JUMPDEST POP SWAP2 SWAP1 POP JUMP INVALID LOG2 PUSH5 0x6970667358 0x22 SLT KECCAK256 0x5D 0xE4 ADDMOD 0x4B 0xBE LOG2 0xA9 CALLDATACOPY 0xBB DIFFICULTY DUP13 0xC7 SHR PUSH18 0xC6A87A132F63219CD9645ADF2187CF579EE7 PUSH5 0x736F6C6343 STOP ADDMOD STOP STOP CALLER ","sha1":"3b56528dee64fefcbeee6d002859fc9a26de1c45","source":"// SPDX-License-Identifier: Unlicense\npragma solidity ^0.8.0;\n\ncontract Token{\n    string public name;\n    string public symbol;\n    uint256 public decimals = 18;\n    uint256 public supply;\n\n    constructor(\n        string memory _name,\n        string memory _symbol,\n        uint256 _supply\n    ){\n        name = _name;\n        symbol = _symbol;\n        supply = _supply;\n    }\n}","sourcePath":"contracts/Token.sol","type":"contract","deployment":{"address":"0xACC93c88D223F561880a7D6A5cd19699b7Ae3974","chainid":"1331","blockHeight":3}}