{"abi":[{"inputs":[{"internalType":"string","name":"_name","type":"string"},{"internalType":"string","name":"_symbol","type":"string"},{"internalType":"uint256","name":"_supply","type":"uint256"}],"stateMutability":"nonpayable","type":"constructor","name":"constructor"},{"anonymous":false,"inputs":[{"indexed":false,"internalType":"address","name":"_from","type":"address"},{"indexed":false,"internalType":"address","name":"_spender","type":"address"},{"indexed":false,"internalType":"uint256","name":"_value","type":"uint256"}],"name":"Approve","type":"event"},{"anonymous":false,"inputs":[{"indexed":false,"internalType":"address","name":"_from","type":"address"},{"indexed":false,"internalType":"address","name":"_to","type":"address"},{"indexed":false,"internalType":"uint256","name":"_value","type":"uint256"}],"name":"Transfer","type":"event"},{"inputs":[{"internalType":"address","name":"_spender","type":"address"},{"internalType":"uint256","name":"_value","type":"uint256"}],"name":"approve","outputs":[{"internalType":"bool","name":"success","type":"bool"}],"stateMutability":"nonpayable","type":"function"},{"inputs":[{"internalType":"address","name":"","type":"address"}],"name":"balanceOf","outputs":[{"internalType":"uint256","name":"","type":"uint256"}],"stateMutability":"view","type":"function"},{"inputs":[],"name":"decimals","outputs":[{"internalType":"uint256","name":"","type":"uint256"}],"stateMutability":"view","type":"function"},{"inputs":[],"name":"name","outputs":[{"internalType":"string","name":"","type":"string"}],"stateMutability":"view","type":"function"},{"inputs":[],"name":"symbol","outputs":[{"internalType":"string","name":"","type":"string"}],"stateMutability":"view","type":"function"},{"inputs":[],"name":"totalSupply","outputs":[{"internalType":"uint256","name":"","type":"uint256"}],"stateMutability":"view","type":"function"},{"inputs":[{"internalType":"address","name":"_to","type":"address"},{"internalType":"uint256","name":"_value","type":"uint256"}],"name":"transfer","outputs":[{"internalType":"bool","name":"success","type":"bool"}],"stateMutability":"nonpayable","type":"function"},{"inputs":[{"internalType":"address","name":"_from","type":"address"},{"internalType":"address","name":"_to","type":"address"},{"internalType":"uint256","name":"_value","type":"uint256"}],"name":"transferFrom","outputs":[{"internalType":"bool","name":"success","type":"bool"}],"stateMutability":"nonpayable","type":"function"}],"bytecode":"608060405260126002553480156200001657600080fd5b506040516200092c3803806200092c8339810160408190526200003991620001c2565b82516200004e90600090602086019062000071565b5081516200006490600190602085019062000071565b5060035550620002859050565b8280546200007f9062000232565b90600052602060002090601f016020900481019282620000a35760008555620000ee565b82601f10620000be57805160ff1916838001178555620000ee565b82800160010185558215620000ee579182015b82811115620000ee578251825591602001919060010190620000d1565b50620000fc92915062000100565b5090565b5b80821115620000fc576000815560010162000101565b600082601f83011262000128578081fd5b81516001600160401b03808211156200014557620001456200026f565b6040516020601f8401601f19168201810183811183821017156200016d576200016d6200026f565b604052838252858401810187101562000184578485fd5b8492505b83831015620001a7578583018101518284018201529182019162000188565b83831115620001b857848185840101525b5095945050505050565b600080600060608486031215620001d7578283fd5b83516001600160401b0380821115620001ee578485fd5b620001fc8783880162000117565b9450602086015191508082111562000212578384fd5b50620002218682870162000117565b925050604084015190509250925092565b6002810460018216806200024757607f821691505b602082108114156200026957634e487b7160e01b600052602260045260246000fd5b50919050565b634e487b7160e01b600052604160045260246000fd5b61069780620002956000396000f3fe608060405234801561001057600080fd5b50600436106100885760003560e01c8063313ce5671161005b578063313ce567146100f357806370a08231146100fb57806395d89b411461010e578063a9059cbb1461011657610088565b806306fdde031461008d578063095ea7b3146100ab57806318160ddd146100cb57806323b872dd146100e0575b600080fd5b610095610129565b6040516100a29190610522565b60405180910390f35b6100be6100b93660046104ca565b6101b7565b6040516100a29190610517565b6100d3610275565b6040516100a291906105d8565b6100be6100ee36600461048f565b61027b565b6100d3610339565b6100d361010936600461046e565b61033f565b610095610351565b6100be6101243660046104ca565b61035e565b6000805461013690610610565b80601f016020809104026020016040519081016040528092919081815260200182805461016290610610565b80156101af5780601f10610184576101008083540402835291602001916101af565b820191906000526020600020905b81548152906001019060200180831161019257829003601f168201915b505050505081565b6001600160a01b0382166000908152600460205260408120548211156101dc57600080fd5b6001600160a01b038316600090815260056020908152604080832033845290915290205482111561020c57600080fd5b3360008181526005602090815260408083206001600160a01b038816845290915290819020849055517f6e11fb1b7f119e3f2fa29896ef5fdf8b8a2d0d4df6fe90ba8668e7d8b2ffa25e9161026491869086906104f3565b60405180910390a150600192915050565b60035481565b60006001600160a01b0383166102ac5760405162461bcd60e51b81526004016102a3906105a1565b60405180910390fd5b6001600160a01b0384166000908152600460205260409020548211156102d157600080fd5b6102dc8484846103a1565b6001600160a01b038416600090815260056020908152604080832033845290915290205461030b9083906105f9565b6001600160a01b03851660009081526005602090815260408083203384529091529020555060019392505050565b60025481565b60046020526000908152604090205481565b6001805461013690610610565b3360009081526004602052604081205482111561038d5760405162461bcd60e51b81526004016102a390610575565b6103983384846103a1565b50600192915050565b6001600160a01b0383166000908152600460205260409020546103c59082906105f9565b6001600160a01b0380851660009081526004602052604080822093909355908416815220546103f59082906105e1565b6001600160a01b0383166000908152600460205260409081902091909155517fddf252ad1be2c89b69c2b068fc378daa952ba7f163c4a11628f55a4df523b3ef90610445908590859085906104f3565b60405180910390a1505050565b80356001600160a01b038116811461046957600080fd5b919050565b60006020828403121561047f578081fd5b61048882610452565b9392505050565b6000806000606084860312156104a3578182fd5b6104ac84610452565b92506104ba60208501610452565b9150604084013590509250925092565b600080604083850312156104dc578182fd5b6104e583610452565b946020939093013593505050565b6001600160a01b039384168152919092166020820152604081019190915260600190565b901515815260200190565b6000602080835283518082850152825b8181101561054e57858101830151858201604001528201610532565b8181111561055f5783604083870101525b50601f01601f1916929092016040019392505050565b602080825260129082015271084c2d8c2dcc6ca40dcdee840cadcdeeaced60731b604082015260600190565b60208082526018908201527f496e76616c696420526563656976657220416464726573730000000000000000604082015260600190565b90815260200190565b600082198211156105f4576105f461064b565b500190565b60008282101561060b5761060b61064b565b500390565b60028104600182168061062457607f821691505b6020821081141561064557634e487b7160e01b600052602260045260246000fd5b50919050565b634e487b7160e01b600052601160045260246000fdfea264697066735822122021eb0ba7fae089ae05f7156d2261ce9cf209fc152ee2f5e59ec498cbd937534264736f6c63430008000033","bytecodeSha1":"693a651a97099c7ac06214a6cd9d7ebef1072aab","compiler":{"evm_version":"istanbul","optimizer":{"enabled":true,"runs":200},"version":"0.8.0+commit.c7dfd78e"},"contractName":"Token","language":"Solidity","natspec":{"kind":"dev","methods":{},"version":1},"opcodes":"PUSH1 0x80 PUSH1 0x40 MSTORE CALLVALUE DUP1 ISZERO PUSH2 0x10 JUMPI PUSH1 0x0 DUP1 REVERT JUMPDEST POP PUSH1 0x4 CALLDATASIZE LT PUSH2 0x88 JUMPI PUSH1 0x0 CALLDATALOAD PUSH1 0xE0 SHR DUP1 PUSH4 0x313CE567 GT PUSH2 0x5B JUMPI DUP1 PUSH4 0x313CE567 EQ PUSH2 0xF3 JUMPI DUP1 PUSH4 0x70A08231 EQ PUSH2 0xFB JUMPI DUP1 PUSH4 0x95D89B41 EQ PUSH2 0x10E JUMPI DUP1 PUSH4 0xA9059CBB EQ PUSH2 0x116 JUMPI PUSH2 0x88 JUMP JUMPDEST DUP1 PUSH4 0x6FDDE03 EQ PUSH2 0x8D JUMPI DUP1 PUSH4 0x95EA7B3 EQ PUSH2 0xAB JUMPI DUP1 PUSH4 0x18160DDD EQ PUSH2 0xCB JUMPI DUP1 PUSH4 0x23B872DD EQ PUSH2 0xE0 JUMPI JUMPDEST PUSH1 0x0 DUP1 REVERT JUMPDEST PUSH2 0x95 PUSH2 0x129 JUMP JUMPDEST PUSH1 0x40 MLOAD PUSH2 0xA2 SWAP2 SWAP1 PUSH2 0x522 JUMP JUMPDEST PUSH1 0x40 MLOAD DUP1 SWAP2 SUB SWAP1 RETURN JUMPDEST PUSH2 0xBE PUSH2 0xB9 CALLDATASIZE PUSH1 0x4 PUSH2 0x4CA JUMP JUMPDEST PUSH2 0x1B7 JUMP JUMPDEST PUSH1 0x40 MLOAD PUSH2 0xA2 SWAP2 SWAP1 PUSH2 0x517 JUMP JUMPDEST PUSH2 0xD3 PUSH2 0x275 JUMP JUMPDEST PUSH1 0x40 MLOAD PUSH2 0xA2 SWAP2 SWAP1 PUSH2 0x5D8 JUMP JUMPDEST PUSH2 0xBE PUSH2 0xEE CALLDATASIZE PUSH1 0x4 PUSH2 0x48F JUMP JUMPDEST PUSH2 0x27B JUMP JUMPDEST PUSH2 0xD3 PUSH2 0x339 JUMP JUMPDEST PUSH2 0xD3 PUSH2 0x109 CALLDATASIZE PUSH1 0x4 PUSH2 0x46E JUMP JUMPDEST PUSH2 0x33F JUMP JUMPDEST PUSH2 0x95 PUSH2 0x351 JUMP JUMPDEST PUSH2 0xBE PUSH2 0x124 CALLDATASIZE PUSH1 0x4 PUSH2 0x4CA JUMP JUMPDEST PUSH2 0x35E JUMP JUMPDEST PUSH1 0x0 DUP1 SLOAD PUSH2 0x136 SWAP1 PUSH2 0x610 JUMP JUMPDEST DUP1 PUSH1 0x1F ADD PUSH1 0x20 DUP1 SWAP2 DIV MUL PUSH1 0x20 ADD PUSH1 0x40 MLOAD SWAP1 DUP2 ADD PUSH1 0x40 MSTORE DUP1 SWAP3 SWAP2 SWAP1 DUP2 DUP2 MSTORE PUSH1 0x20 ADD DUP3 DUP1 SLOAD PUSH2 0x162 SWAP1 PUSH2 0x610 JUMP JUMPDEST DUP1 ISZERO PUSH2 0x1AF JUMPI DUP1 PUSH1 0x1F LT PUSH2 0x184 JUMPI PUSH2 0x100 DUP1 DUP4 SLOAD DIV MUL DUP4 MSTORE SWAP2 PUSH1 0x20 ADD SWAP2 PUSH2 0x1AF JUMP JUMPDEST DUP3 ADD SWAP2 SWAP1 PUSH1 0x0 MSTORE PUSH1 0x20 PUSH1 0x0 KECCAK256 SWAP1 JUMPDEST DUP2 SLOAD DUP2 MSTORE SWAP1 PUSH1 0x1 ADD SWAP1 PUSH1 0x20 ADD DUP1 DUP4 GT PUSH2 0x192 JUMPI DUP3 SWAP1 SUB PUSH1 0x1F AND DUP3 ADD SWAP2 JUMPDEST POP POP POP POP POP DUP2 JUMP JUMPDEST PUSH1 0x1 PUSH1 0x1 PUSH1 0xA0 SHL SUB DUP3 AND PUSH1 0x0 SWAP1 DUP2 MSTORE PUSH1 0x4 PUSH1 0x20 MSTORE PUSH1 0x40 DUP2 KECCAK256 SLOAD DUP3 GT ISZERO PUSH2 0x1DC JUMPI PUSH1 0x0 DUP1 REVERT JUMPDEST PUSH1 0x1 PUSH1 0x1 PUSH1 0xA0 SHL SUB DUP4 AND PUSH1 0x0 SWAP1 DUP2 MSTORE PUSH1 0x5 PUSH1 0x20 SWAP1 DUP2 MSTORE PUSH1 0x40 DUP1 DUP4 KECCAK256 CALLER DUP5 MSTORE SWAP1 SWAP2 MSTORE SWAP1 KECCAK256 SLOAD DUP3 GT ISZERO PUSH2 0x20C JUMPI PUSH1 0x0 DUP1 REVERT JUMPDEST CALLER PUSH1 0x0 DUP2 DUP2 MSTORE PUSH1 0x5 PUSH1 0x20 SWAP1 DUP2 MSTORE PUSH1 0x40 DUP1 DUP4 KECCAK256 PUSH1 0x1 PUSH1 0x1 PUSH1 0xA0 SHL SUB DUP9 AND DUP5 MSTORE SWAP1 SWAP2 MSTORE SWAP1 DUP2 SWAP1 KECCAK256 DUP5 SWAP1 SSTORE MLOAD PUSH32 0x6E11FB1B7F119E3F2FA29896EF5FDF8B8A2D0D4DF6FE90BA8668E7D8B2FFA25E SWAP2 PUSH2 0x264 SWAP2 DUP7 SWAP1 DUP7 SWAP1 PUSH2 0x4F3 JUMP JUMPDEST PUSH1 0x40 MLOAD DUP1 SWAP2 SUB SWAP1 LOG1 POP PUSH1 0x1 SWAP3 SWAP2 POP POP JUMP JUMPDEST PUSH1 0x3 SLOAD DUP2 JUMP JUMPDEST PUSH1 0x0 PUSH1 0x1 PUSH1 0x1 PUSH1 0xA0 SHL SUB DUP4 AND PUSH2 0x2AC JUMPI PUSH1 0x40 MLOAD PUSH3 0x461BCD PUSH1 0xE5 SHL DUP2 MSTORE PUSH1 0x4 ADD PUSH2 0x2A3 SWAP1 PUSH2 0x5A1 JUMP JUMPDEST PUSH1 0x40 MLOAD DUP1 SWAP2 SUB SWAP1 REVERT JUMPDEST PUSH1 0x1 PUSH1 0x1 PUSH1 0xA0 SHL SUB DUP5 AND PUSH1 0x0 SWAP1 DUP2 MSTORE PUSH1 0x4 PUSH1 0x20 MSTORE PUSH1 0x40 SWAP1 KECCAK256 SLOAD DUP3 GT ISZERO PUSH2 0x2D1 JUMPI PUSH1 0x0 DUP1 REVERT JUMPDEST PUSH2 0x2DC DUP5 DUP5 DUP5 PUSH2 0x3A1 JUMP JUMPDEST PUSH1 0x1 PUSH1 0x1 PUSH1 0xA0 SHL SUB DUP5 AND PUSH1 0x0 SWAP1 DUP2 MSTORE PUSH1 0x5 PUSH1 0x20 SWAP1 DUP2 MSTORE PUSH1 0x40 DUP1 DUP4 KECCAK256 CALLER DUP5 MSTORE SWAP1 SWAP2 MSTORE SWAP1 KECCAK256 SLOAD PUSH2 0x30B SWAP1 DUP4 SWAP1 PUSH2 0x5F9 JUMP JUMPDEST PUSH1 0x1 PUSH1 0x1 PUSH1 0xA0 SHL SUB DUP6 AND PUSH1 0x0 SWAP1 DUP2 MSTORE PUSH1 0x5 PUSH1 0x20 SWAP1 DUP2 MSTORE PUSH1 0x40 DUP1 DUP4 KECCAK256 CALLER DUP5 MSTORE SWAP1 SWAP2 MSTORE SWAP1 KECCAK256 SSTORE POP PUSH1 0x1 SWAP4 SWAP3 POP POP POP JUMP JUMPDEST PUSH1 0x2 SLOAD DUP2 JUMP JUMPDEST PUSH1 0x4 PUSH1 0x20 MSTORE PUSH1 0x0 SWAP1 DUP2 MSTORE PUSH1 0x40 SWAP1 KECCAK256 SLOAD DUP2 JUMP JUMPDEST PUSH1 0x1 DUP1 SLOAD PUSH2 0x136 SWAP1 PUSH2 0x610 JUMP JUMPDEST CALLER PUSH1 0x0 SWAP1 DUP2 MSTORE PUSH1 0x4 PUSH1 0x20 MSTORE PUSH1 0x40 DUP2 KECCAK256 SLOAD DUP3 GT ISZERO PUSH2 0x38D JUMPI PUSH1 0x40 MLOAD PUSH3 0x461BCD PUSH1 0xE5 SHL DUP2 MSTORE PUSH1 0x4 ADD PUSH2 0x2A3 SWAP1 PUSH2 0x575 JUMP JUMPDEST PUSH2 0x398 CALLER DUP5 DUP5 PUSH2 0x3A1 JUMP JUMPDEST POP PUSH1 0x1 SWAP3 SWAP2 POP POP JUMP JUMPDEST PUSH1 0x1 PUSH1 0x1 PUSH1 0xA0 SHL SUB DUP4 AND PUSH1 0x0 SWAP1 DUP2 MSTORE PUSH1 0x4 PUSH1 0x20 MSTORE PUSH1 0x40 SWAP1 KECCAK256 SLOAD PUSH2 0x3C5 SWAP1 DUP3 SWAP1 PUSH2 0x5F9 JUMP JUMPDEST PUSH1 0x1 PUSH1 0x1 PUSH1 0xA0 SHL SUB DUP1 DUP6 AND PUSH1 0x0 SWAP1 DUP2 MSTORE PUSH1 0x4 PUSH1 0x20 MSTORE PUSH1 0x40 DUP1 DUP3 KECCAK256 SWAP4 SWAP1 SWAP4 SSTORE SWAP1 DUP5 AND DUP2 MSTORE KECCAK256 SLOAD PUSH2 0x3F5 SWAP1 DUP3 SWAP1 PUSH2 0x5E1 JUMP JUMPDEST PUSH1 0x1 PUSH1 0x1 PUSH1 0xA0 SHL SUB DUP4 AND PUSH1 0x0 SWAP1 DUP2 MSTORE PUSH1 0x4 PUSH1 0x20 MSTORE PUSH1 0x40 SWAP1 DUP2 SWAP1 KECCAK256 SWAP2 SWAP1 SWAP2 SSTORE MLOAD PUSH32 0xDDF252AD1BE2C89B69C2B068FC378DAA952BA7F163C4A11628F55A4DF523B3EF SWAP1 PUSH2 0x445 SWAP1 DUP6 SWAP1 DUP6 SWAP1 DUP6 SWAP1 PUSH2 0x4F3 JUMP JUMPDEST PUSH1 0x40 MLOAD DUP1 SWAP2 SUB SWAP1 LOG1 POP POP POP JUMP JUMPDEST DUP1 CALLDATALOAD PUSH1 0x1 PUSH1 0x1 PUSH1 0xA0 SHL SUB DUP2 AND DUP2 EQ PUSH2 0x469 JUMPI PUSH1 0x0 DUP1 REVERT JUMPDEST SWAP2 SWAP1 POP JUMP JUMPDEST PUSH1 0x0 PUSH1 0x20 DUP3 DUP5 SUB SLT ISZERO PUSH2 0x47F JUMPI DUP1 DUP2 REVERT JUMPDEST PUSH2 0x488 DUP3 PUSH2 0x452 JUMP JUMPDEST SWAP4 SWAP3 POP POP POP JUMP JUMPDEST PUSH1 0x0 DUP1 PUSH1 0x0 PUSH1 0x60 DUP5 DUP7 SUB SLT ISZERO PUSH2 0x4A3 JUMPI DUP2 DUP3 REVERT JUMPDEST PUSH2 0x4AC DUP5 PUSH2 0x452 JUMP JUMPDEST SWAP3 POP PUSH2 0x4BA PUSH1 0x20 DUP6 ADD PUSH2 0x452 JUMP JUMPDEST SWAP2 POP PUSH1 0x40 DUP5 ADD CALLDATALOAD SWAP1 POP SWAP3 POP SWAP3 POP SWAP3 JUMP JUMPDEST PUSH1 0x0 DUP1 PUSH1 0x40 DUP4 DUP6 SUB SLT ISZERO PUSH2 0x4DC JUMPI DUP2 DUP3 REVERT JUMPDEST PUSH2 0x4E5 DUP4 PUSH2 0x452 JUMP JUMPDEST SWAP5 PUSH1 0x20 SWAP4 SWAP1 SWAP4 ADD CALLDATALOAD SWAP4 POP POP POP JUMP JUMPDEST PUSH1 0x1 PUSH1 0x1 PUSH1 0xA0 SHL SUB SWAP4 DUP5 AND DUP2 MSTORE SWAP2 SWAP1 SWAP3 AND PUSH1 0x20 DUP3 ADD MSTORE PUSH1 0x40 DUP2 ADD SWAP2 SWAP1 SWAP2 MSTORE PUSH1 0x60 ADD SWAP1 JUMP JUMPDEST SWAP1 ISZERO ISZERO DUP2 MSTORE PUSH1 0x20 ADD SWAP1 JUMP JUMPDEST PUSH1 0x0 PUSH1 0x20 DUP1 DUP4 MSTORE DUP4 MLOAD DUP1 DUP3 DUP6 ADD MSTORE DUP3 JUMPDEST DUP2 DUP2 LT ISZERO PUSH2 0x54E JUMPI DUP6 DUP2 ADD DUP4 ADD MLOAD DUP6 DUP3 ADD PUSH1 0x40 ADD MSTORE DUP3 ADD PUSH2 0x532 JUMP JUMPDEST DUP2 DUP2 GT ISZERO PUSH2 0x55F JUMPI DUP4 PUSH1 0x40 DUP4 DUP8 ADD ADD MSTORE JUMPDEST POP PUSH1 0x1F ADD PUSH1 0x1F NOT AND SWAP3 SWAP1 SWAP3 ADD PUSH1 0x40 ADD SWAP4 SWAP3 POP POP POP JUMP JUMPDEST PUSH1 0x20 DUP1 DUP3 MSTORE PUSH1 0x12 SWAP1 DUP3 ADD MSTORE PUSH18 0x84C2D8C2DCC6CA40DCDEE840CADCDEEACED PUSH1 0x73 SHL PUSH1 0x40 DUP3 ADD MSTORE PUSH1 0x60 ADD SWAP1 JUMP JUMPDEST PUSH1 0x20 DUP1 DUP3 MSTORE PUSH1 0x18 SWAP1 DUP3 ADD MSTORE PUSH32 0x496E76616C696420526563656976657220416464726573730000000000000000 PUSH1 0x40 DUP3 ADD MSTORE PUSH1 0x60 ADD SWAP1 JUMP JUMPDEST SWAP1 DUP2 MSTORE PUSH1 0x20 ADD SWAP1 JUMP JUMPDEST PUSH1 0x0 DUP3 NOT DUP3 GT ISZERO PUSH2 0x5F4 JUMPI PUSH2 0x5F4 PUSH2 0x64B JUMP JUMPDEST POP ADD SWAP1 JUMP JUMPDEST PUSH1 0x0 DUP3 DUP3 LT ISZERO PUSH2 0x60B JUMPI PUSH2 0x60B PUSH2 0x64B JUMP JUMPDEST POP SUB SWAP1 JUMP JUMPDEST PUSH1 0x2 DUP2 DIV PUSH1 0x1 DUP3 AND DUP1 PUSH2 0x624 JUMPI PUSH1 0x7F DUP3 AND SWAP2 POP JUMPDEST PUSH1 0x20 DUP3 LT DUP2 EQ ISZERO PUSH2 0x645 JUMPI PUSH4 0x4E487B71 PUSH1 0xE0 SHL PUSH1 0x0 MSTORE PUSH1 0x22 PUSH1 0x4 MSTORE PUSH1 0x24 PUSH1 0x0 REVERT JUMPDEST POP SWAP2 SWAP1 POP JUMP JUMPDEST PUSH4 0x4E487B71 PUSH1 0xE0 SHL PUSH1 0x0 MSTORE PUSH1 0x11 PUSH1 0x4 MSTORE PUSH1 0x24 PUSH1 0x0 REVERT INVALID LOG2 PUSH5 0x6970667358 0x22 SLT KECCAK256 0x21 0xEB SIGNEXTEND 0xA7 STATICCALL 0xE0 DUP10 0xAE SDIV 0xF7 ISZERO PUSH14 0x2261CE9CF209FC152EE2F5E59EC4 SWAP9 0xCB 0xD9 CALLDATACOPY MSTORE8 TIMESTAMP PUSH5 0x736F6C6343 STOP ADDMOD STOP STOP CALLER ","sha1":"a4b2384e587e7c85dac5ad5732833b0e6d466ea7","source":"// SPDX-License-Identifier: Unlicense\npragma solidity ^0.8.0;\n\ncontract Token{\n    string public name;\n    string public symbol;\n    uint256 public decimals = 18;\n    uint256 public totalSupply;\n    \n    mapping(address => uint256) public balanceOf;\n    mapping(address => mapping(address=>uint256)) allowance;\n\n    event Transfer(address _from, address _to, uint256 _value);\n    event Approve(address _from, address _spender, uint256 _value);\n\n    constructor(\n        string memory _name,\n        string memory _symbol,\n        uint256 _supply\n    ){\n        name = _name;\n        symbol = _symbol;\n        totalSupply = _supply;\n    }\n\n    function transfer(address _to, uint256 _value) public returns (bool success){\n\n        require(balanceOf[msg.sender]>= _value, \"Balance not enough\");\n\n        _transfer(msg.sender, _to, _value);\n\n        return true;\n    }\n    \n    function _transfer(address _from, address _to, uint256 _value) internal{\n\n        balanceOf[_from] = balanceOf[_from] - _value;\n        balanceOf[_to] = balanceOf[_to] + _value;\n\n        emit Transfer(_from, _to, _value);\n    }\n\n    function transferFrom(address _from, address _to, uint256 _value) public returns (bool success){\n        require(_to!=address(0), 'Invalid Receiver Address');\n        require(balanceOf[_from]>= _value);\n\n        _transfer(_from, _to, _value);\n        allowance[_from][msg.sender] = allowance[_from][msg.sender] - _value;\n\n        return true;\n\n\n    }\n    \n    function approve(address _spender, uint256 _value) public returns (bool success){\n        require(balanceOf[_spender]>=_value);\n        require(allowance[_spender][msg.sender]>=_value);\n\n        allowance[msg.sender][_spender] = _value;\n\n        emit Approve(msg.sender, _spender, _value);\n\n        return true;\n    }\n\n\n}","sourcePath":"contracts/Token.sol","type":"contract","deployment":{"address":"0xE5e4Ba56C3A6c7232B082cdD8aC274235F86939a","chainid":"1331","blockHeight":20}}